{
  "contractName": "FxConversion",
  "abi": [
    {
      "inputs": [],
      "name": "getEurUsd",
      "outputs": [
        {
          "internalType": "uint256",
          "name": "",
          "type": "uint256"
        }
      ],
      "stateMutability": "view",
      "type": "function"
    },
    {
      "inputs": [],
      "name": "getGbpUsd",
      "outputs": [
        {
          "internalType": "uint256",
          "name": "",
          "type": "uint256"
        }
      ],
      "stateMutability": "view",
      "type": "function"
    },
    {
      "inputs": [],
      "name": "getUsdJpy",
      "outputs": [
        {
          "internalType": "uint256",
          "name": "",
          "type": "uint256"
        }
      ],
      "stateMutability": "view",
      "type": "function"
    },
    {
      "inputs": [],
      "name": "getUsdChf",
      "outputs": [
        {
          "internalType": "uint256",
          "name": "",
          "type": "uint256"
        }
      ],
      "stateMutability": "view",
      "type": "function"
    },
    {
      "inputs": [],
      "name": "getEurJpy",
      "outputs": [
        {
          "internalType": "uint256",
          "name": "",
          "type": "uint256"
        }
      ],
      "stateMutability": "view",
      "type": "function"
    },
    {
      "inputs": [],
      "name": "getEurGbp",
      "outputs": [
        {
          "internalType": "uint256",
          "name": "",
          "type": "uint256"
        }
      ],
      "stateMutability": "view",
      "type": "function"
    },
    {
      "inputs": [],
      "name": "getGbpJpy",
      "outputs": [
        {
          "internalType": "uint256",
          "name": "",
          "type": "uint256"
        }
      ],
      "stateMutability": "view",
      "type": "function"
    }
  ],
  "bytecode": "0x608060405234801561001057600080fd5b50610704806100206000396000f3fe608060405234801561001057600080fd5b506004361061007d5760003560e01c806366f3f76f1161005b57806366f3f76f146100dc57806381a12a50146100fa578063a3e8b73d14610118578063be73f51e146101365761007d565b806307636ce91461008257806326564231146100a057806347a104b9146100be575b600080fd5b61008a610154565b60405161009791906104a6565b60405180910390f35b6100a861018f565b6040516100b591906104a6565b60405180910390f35b6100c66101ca565b6040516100d391906104a6565b60405180910390f35b6100e4610275565b6040516100f191906104a6565b60405180910390f35b610102610320565b60405161010f91906104a6565b60405180910390f35b6101206103b9565b60405161012d91906104a6565b60405180910390f35b61013e6103f4565b60405161014b91906104a6565b60405180910390f35b60008061015f6103f4565b9050600061016b6101ca565b90506305f5e100818361017e91906104f0565b6101889190610579565b9250505090565b60008061019a6103f4565b905060006101a6610320565b9050806305f5e100836101b991906104f0565b6101c39190610579565b9250505090565b600080733ae2f46a2d84e3d5590ee6ee5116b80caf77deca905060008173ffffffffffffffffffffffffffffffffffffffff1663feaf968c6040518163ffffffff1660e01b815260040160a060405180830381865afa158015610231573d6000803e3d6000fd5b505050506040513d601f19601f820116820180604052508101906102559190610653565b50505091505080662386f26fc1000061026e9190610579565b9250505090565b600080735e601cf5ef284bcd12decbda189479413284e1d2905060008173ffffffffffffffffffffffffffffffffffffffff1663feaf968c6040518163ffffffff1660e01b815260040160a060405180830381865afa1580156102dc573d6000803e3d6000fd5b505050506040513d601f19601f820116820180604052508101906103009190610653565b50505091505080662386f26fc100006103199190610579565b9250505090565b600080737b17a813eec55515fb8f49f2ef51502bc54dd40f905060008173ffffffffffffffffffffffffffffffffffffffff1663feaf968c6040518163ffffffff1660e01b815260040160a060405180830381865afa158015610387573d6000803e3d6000fd5b505050506040513d601f19601f820116820180604052508101906103ab9190610653565b505050915050809250505090565b6000806103c4610320565b905060006103d06101ca565b90506305f5e10081836103e391906104f0565b6103ed9190610579565b9250505090565b6000807378f9e60608bf48a1155b4b2a5e31f32318a1d85f905060008173ffffffffffffffffffffffffffffffffffffffff1663feaf968c6040518163ffffffff1660e01b815260040160a060405180830381865afa15801561045b573d6000803e3d6000fd5b505050506040513d601f19601f8201168201806040525081019061047f9190610653565b505050915050809250505090565b6000819050919050565b6104a08161048d565b82525050565b60006020820190506104bb6000830184610497565b92915050565b7f4e487b7100000000000000000000000000000000000000000000000000000000600052601160045260246000fd5b60006104fb8261048d565b91506105068361048d565b9250817fffffffffffffffffffffffffffffffffffffffffffffffffffffffffffffffff048311821515161561053f5761053e6104c1565b5b828202905092915050565b7f4e487b7100000000000000000000000000000000000000000000000000000000600052601260045260246000fd5b60006105848261048d565b915061058f8361048d565b92508261059f5761059e61054a565b5b828204905092915050565b600080fd5b600069ffffffffffffffffffff82169050919050565b6105ce816105af565b81146105d957600080fd5b50565b6000815190506105eb816105c5565b92915050565b6000819050919050565b610604816105f1565b811461060f57600080fd5b50565b600081519050610621816105fb565b92915050565b6106308161048d565b811461063b57600080fd5b50565b60008151905061064d81610627565b92915050565b600080600080600060a0868803121561066f5761066e6105aa565b5b600061067d888289016105dc565b955050602061068e88828901610612565b945050604061069f8882890161063e565b93505060606106b08882890161063e565b92505060806106c1888289016105dc565b915050929550929590935056fea264697066735822122016cd520e3db8ab5ace01831ebee35f3243aa9e5c5fcd673c28719befd7a392f064736f6c634300080a0033",
  "immutableReferences": {},
  "source": "//SPDX-License-Identifier: MIT\r\n\r\npragma solidity ^0.8.0;\r\nimport \"@chainlink/contracts/src/v0.8/interfaces/AggregatorV3Interface.sol\";\r\n\r\ncontract FxConversion {\r\n\r\n  /* \r\n    - the contract addresses used are for the <<--Rinkeby testnet-->>\r\n    - all values should be divided by 10 ** 8 to get their precise value\r\n  */\r\n\r\n  function getEurUsd() public view returns(uint256) {\r\n    AggregatorV3Interface priceFeed = AggregatorV3Interface(0x78F9e60608bF48a1155b4B2A5e31F32318a1d85F);\r\n    (,int price,,,) = priceFeed.latestRoundData();\r\n    return uint256(price);\r\n  }\r\n\r\n  function getGbpUsd() public view returns(uint256) {\r\n    AggregatorV3Interface priceFeed = AggregatorV3Interface(0x7B17A813eEC55515Fb8F49F2ef51502bC54DD40F);\r\n    (,int price,,,) = priceFeed.latestRoundData();\r\n    return uint256(price);\r\n  }\r\n\r\n  function getUsdJpy() public view returns(uint256) {\r\n    AggregatorV3Interface priceFeed = AggregatorV3Interface(0x3Ae2F46a2D84e3D5590ee6Ee5116B80caF77DeCA);\r\n    (,int price,,,) = priceFeed.latestRoundData();\r\n    return ((10 ** 16) / uint256(price));\r\n  }\r\n\r\n  function getUsdChf() public view returns(uint256) {\r\n    AggregatorV3Interface priceFeed = AggregatorV3Interface(0x5e601CF5EF284Bcd12decBDa189479413284E1d2);\r\n    (,int price,,,) = priceFeed.latestRoundData();\r\n    return ((10 ** 16) / uint256(price));\r\n  }\r\n\r\n  function getEurJpy() public view returns(uint256) {\r\n    uint256 eurUsd = getEurUsd();\r\n    uint256 usdJpy = getUsdJpy();\r\n    return ((eurUsd * usdJpy) / (10 ** 8));\r\n  }\r\n\r\n  function getEurGbp() public view returns(uint256) {\r\n    uint256 eurUsd = getEurUsd();\r\n    uint256 gbpUsd = getGbpUsd();\r\n    return ((eurUsd * (10 ** 8)) / gbpUsd);\r\n  }\r\n\r\n  function getGbpJpy() public view returns(uint256) {\r\n    uint256 gbpUsd = getGbpUsd();\r\n    uint256 usdJpy = getUsdJpy();\r\n    return ((gbpUsd * usdJpy) / (10 ** 8));\r\n  }\r\n\r\n}",
  "sourcePath": "C:\\Users\\Oyeto\\Documents\\programming\\Projects\\web-apps\\fx-conversion\\contracts\\FxConversion.sol",
  "compiler": {
    "name": "solc",
    "version": "0.8.10+commit.fc410830.Emscripten.clang"
  },
  "schemaVersion": "3.4.3",
  "updatedAt": "2021-12-04T14:57:48.346Z",
  "devdoc": {
    "kind": "dev",
    "methods": {},
    "version": 1
  },
  "userdoc": {
    "kind": "user",
    "methods": {},
    "version": 1
  }
}